{
  "_format": "hh-sol-artifact-1",
  "contractName": "SimpleDex",
  "sourceName": "contracts/SimpleDex.sol",
  "abi": [
    {
      "inputs": [
        {
          "internalType": "address",
          "name": "_router",
          "type": "address"
        }
      ],
      "stateMutability": "nonpayable",
      "type": "constructor"
    },
    {
      "inputs": [
        {
          "internalType": "address",
          "name": "tokenA",
          "type": "address"
        },
        {
          "internalType": "address",
          "name": "tokenB",
          "type": "address"
        },
        {
          "internalType": "uint256",
          "name": "amountA",
          "type": "uint256"
        },
        {
          "internalType": "uint256",
          "name": "amountB",
          "type": "uint256"
        }
      ],
      "name": "addLiquidity",
      "outputs": [],
      "stateMutability": "nonpayable",
      "type": "function"
    },
    {
      "inputs": [
        {
          "internalType": "address",
          "name": "tokenIn",
          "type": "address"
        },
        {
          "internalType": "address",
          "name": "tokenOut",
          "type": "address"
        },
        {
          "internalType": "uint256",
          "name": "amountIn",
          "type": "uint256"
        }
      ],
      "name": "getOutputAmount",
      "outputs": [
        {
          "internalType": "uint256",
          "name": "",
          "type": "uint256"
        }
      ],
      "stateMutability": "view",
      "type": "function"
    },
    {
      "inputs": [],
      "name": "router",
      "outputs": [
        {
          "internalType": "contract IUniswapV2Router02",
          "name": "",
          "type": "address"
        }
      ],
      "stateMutability": "view",
      "type": "function"
    },
    {
      "inputs": [],
      "name": "routerDeployed",
      "outputs": [
        {
          "internalType": "contract IRouter",
          "name": "",
          "type": "address"
        }
      ],
      "stateMutability": "view",
      "type": "function"
    },
    {
      "inputs": [
        {
          "internalType": "address",
          "name": "tokenIn",
          "type": "address"
        },
        {
          "internalType": "address",
          "name": "tokenOut",
          "type": "address"
        },
        {
          "internalType": "uint256",
          "name": "amountIn",
          "type": "uint256"
        },
        {
          "internalType": "uint256",
          "name": "amountOutMin",
          "type": "uint256"
        }
      ],
      "name": "swapTokensForTokens",
      "outputs": [],
      "stateMutability": "nonpayable",
      "type": "function"
    }
  ],
  "bytecode": "0x60806040523480156200001157600080fd5b5060405162001171380380620011718339818101604052810190620000379190620000e9565b80600160006101000a81548173ffffffffffffffffffffffffffffffffffffffff021916908373ffffffffffffffffffffffffffffffffffffffff160217905550506200011b565b600080fd5b600073ffffffffffffffffffffffffffffffffffffffff82169050919050565b6000620000b18262000084565b9050919050565b620000c381620000a4565b8114620000cf57600080fd5b50565b600081519050620000e381620000b8565b92915050565b6000602082840312156200010257620001016200007f565b5b60006200011284828501620000d2565b91505092915050565b611046806200012b6000396000f3fe608060405234801561001057600080fd5b50600436106100575760003560e01c806380acecde1461005c5780638627e3b91461008c5780639ec9c0b8146100aa578063cf6c62ea146100c6578063f887ea40146100e2575b600080fd5b61007660048036038101906100719190610968565b610100565b60405161008391906109ca565b60405180910390f35b6100946102bb565b6040516100a19190610a44565b60405180910390f35b6100c460048036038101906100bf9190610a5f565b6102df565b005b6100e060048036038101906100db9190610a5f565b6105a0565b005b6100ea61089a565b6040516100f79190610ae7565b60405180910390f35b600080600267ffffffffffffffff81111561011e5761011d610b02565b5b60405190808252806020026020018201604052801561014c5781602001602082028036833780820191505090505b509050848160008151811061016457610163610b31565b5b602002602001019073ffffffffffffffffffffffffffffffffffffffff16908173ffffffffffffffffffffffffffffffffffffffff168152505083816001815181106101b3576101b2610b31565b5b602002602001019073ffffffffffffffffffffffffffffffffffffffff16908173ffffffffffffffffffffffffffffffffffffffff16815250506000600160009054906101000a900473ffffffffffffffffffffffffffffffffffffffff1673ffffffffffffffffffffffffffffffffffffffff1663d06ca61f85846040518363ffffffff1660e01b815260040161024c929190610c1e565b600060405180830381865afa158015610269573d6000803e3d6000fd5b505050506040513d6000823e3d601f19601f820116820180604052508101906102929190610d8d565b9050806001815181106102a8576102a7610b31565b5b6020026020010151925050509392505050565b60008054906101000a900473ffffffffffffffffffffffffffffffffffffffff1681565b8373ffffffffffffffffffffffffffffffffffffffff166323b872dd3330856040518463ffffffff1660e01b815260040161031c93929190610de5565b6020604051808303816000875af115801561033b573d6000803e3d6000fd5b505050506040513d601f19601f8201168201806040525081019061035f9190610e54565b508373ffffffffffffffffffffffffffffffffffffffff1663095ea7b3600160009054906101000a900473ffffffffffffffffffffffffffffffffffffffff16846040518363ffffffff1660e01b81526004016103bd929190610e81565b6020604051808303816000875af11580156103dc573d6000803e3d6000fd5b505050506040513d601f19601f820116820180604052508101906104009190610e54565b506000600267ffffffffffffffff81111561041e5761041d610b02565b5b60405190808252806020026020018201604052801561044c5781602001602082028036833780820191505090505b509050848160008151811061046457610463610b31565b5b602002602001019073ffffffffffffffffffffffffffffffffffffffff16908173ffffffffffffffffffffffffffffffffffffffff168152505083816001815181106104b3576104b2610b31565b5b602002602001019073ffffffffffffffffffffffffffffffffffffffff16908173ffffffffffffffffffffffffffffffffffffffff1681525050600160009054906101000a900473ffffffffffffffffffffffffffffffffffffffff1673ffffffffffffffffffffffffffffffffffffffff166338ed173984848433426040518663ffffffff1660e01b8152600401610550959493929190610eaa565b6000604051808303816000875af115801561056f573d6000803e3d6000fd5b505050506040513d6000823e3d601f19601f820116820180604052508101906105989190610d8d565b505050505050565b8373ffffffffffffffffffffffffffffffffffffffff166323b872dd3330856040518463ffffffff1660e01b81526004016105dd93929190610de5565b6020604051808303816000875af11580156105fc573d6000803e3d6000fd5b505050506040513d601f19601f820116820180604052508101906106209190610e54565b508273ffffffffffffffffffffffffffffffffffffffff166323b872dd3330846040518463ffffffff1660e01b815260040161065e93929190610de5565b6020604051808303816000875af115801561067d573d6000803e3d6000fd5b505050506040513d601f19601f820116820180604052508101906106a19190610e54565b508373ffffffffffffffffffffffffffffffffffffffff1663095ea7b3600160009054906101000a900473ffffffffffffffffffffffffffffffffffffffff16846040518363ffffffff1660e01b81526004016106ff929190610e81565b6020604051808303816000875af115801561071e573d6000803e3d6000fd5b505050506040513d601f19601f820116820180604052508101906107429190610e54565b508273ffffffffffffffffffffffffffffffffffffffff1663095ea7b3600160009054906101000a900473ffffffffffffffffffffffffffffffffffffffff16836040518363ffffffff1660e01b81526004016107a0929190610e81565b6020604051808303816000875af11580156107bf573d6000803e3d6000fd5b505050506040513d601f19601f820116820180604052508101906107e39190610e54565b50600160009054906101000a900473ffffffffffffffffffffffffffffffffffffffff1673ffffffffffffffffffffffffffffffffffffffff1663e8e337008585858560018033426040518963ffffffff1660e01b815260040161084e989796959493929190610f3f565b6060604051808303816000875af115801561086d573d6000803e3d6000fd5b505050506040513d601f19601f820116820180604052508101906108919190610fbd565b50505050505050565b600160009054906101000a900473ffffffffffffffffffffffffffffffffffffffff1681565b6000604051905090565b600080fd5b600080fd5b600073ffffffffffffffffffffffffffffffffffffffff82169050919050565b60006108ff826108d4565b9050919050565b61090f816108f4565b811461091a57600080fd5b50565b60008135905061092c81610906565b92915050565b6000819050919050565b61094581610932565b811461095057600080fd5b50565b6000813590506109628161093c565b92915050565b600080600060608486031215610981576109806108ca565b5b600061098f8682870161091d565b93505060206109a08682870161091d565b92505060406109b186828701610953565b9150509250925092565b6109c481610932565b82525050565b60006020820190506109df60008301846109bb565b92915050565b6000819050919050565b6000610a0a610a05610a00846108d4565b6109e5565b6108d4565b9050919050565b6000610a1c826109ef565b9050919050565b6000610a2e82610a11565b9050919050565b610a3e81610a23565b82525050565b6000602082019050610a596000830184610a35565b92915050565b60008060008060808587031215610a7957610a786108ca565b5b6000610a878782880161091d565b9450506020610a988782880161091d565b9350506040610aa987828801610953565b9250506060610aba87828801610953565b91505092959194509250565b6000610ad182610a11565b9050919050565b610ae181610ac6565b82525050565b6000602082019050610afc6000830184610ad8565b92915050565b7f4e487b7100000000000000000000000000000000000000000000000000000000600052604160045260246000fd5b7f4e487b7100000000000000000000000000000000000000000000000000000000600052603260045260246000fd5b600081519050919050565b600082825260208201905092915050565b6000819050602082019050919050565b610b95816108f4565b82525050565b6000610ba78383610b8c565b60208301905092915050565b6000602082019050919050565b6000610bcb82610b60565b610bd58185610b6b565b9350610be083610b7c565b8060005b83811015610c11578151610bf88882610b9b565b9750610c0383610bb3565b925050600181019050610be4565b5085935050505092915050565b6000604082019050610c3360008301856109bb565b8181036020830152610c458184610bc0565b90509392505050565b600080fd5b6000601f19601f8301169050919050565b610c6d82610c53565b810181811067ffffffffffffffff82111715610c8c57610c8b610b02565b5b80604052505050565b6000610c9f6108c0565b9050610cab8282610c64565b919050565b600067ffffffffffffffff821115610ccb57610cca610b02565b5b602082029050602081019050919050565b600080fd5b600081519050610cf08161093c565b92915050565b6000610d09610d0484610cb0565b610c95565b90508083825260208201905060208402830185811115610d2c57610d2b610cdc565b5b835b81811015610d555780610d418882610ce1565b845260208401935050602081019050610d2e565b5050509392505050565b600082601f830112610d7457610d73610c4e565b5b8151610d84848260208601610cf6565b91505092915050565b600060208284031215610da357610da26108ca565b5b600082015167ffffffffffffffff811115610dc157610dc06108cf565b5b610dcd84828501610d5f565b91505092915050565b610ddf816108f4565b82525050565b6000606082019050610dfa6000830186610dd6565b610e076020830185610dd6565b610e1460408301846109bb565b949350505050565b60008115159050919050565b610e3181610e1c565b8114610e3c57600080fd5b50565b600081519050610e4e81610e28565b92915050565b600060208284031215610e6a57610e696108ca565b5b6000610e7884828501610e3f565b91505092915050565b6000604082019050610e966000830185610dd6565b610ea360208301846109bb565b9392505050565b600060a082019050610ebf60008301886109bb565b610ecc60208301876109bb565b8181036040830152610ede8186610bc0565b9050610eed6060830185610dd6565b610efa60808301846109bb565b9695505050505050565b6000819050919050565b6000610f29610f24610f1f84610f04565b6109e5565b610932565b9050919050565b610f3981610f0e565b82525050565b600061010082019050610f55600083018b610dd6565b610f62602083018a610dd6565b610f6f60408301896109bb565b610f7c60608301886109bb565b610f896080830187610f30565b610f9660a0830186610f30565b610fa360c0830185610dd6565b610fb060e08301846109bb565b9998505050505050505050565b600080600060608486031215610fd657610fd56108ca565b5b6000610fe486828701610ce1565b9350506020610ff586828701610ce1565b925050604061100686828701610ce1565b915050925092509256fea2646970667358221220eca2b410ba2f35f7af39c12530795578befa07e31327f5ea84bd1952a47117d264736f6c63430008140033",
  "linkReferences": {},
  "deployedLinkReferences": {}
}