{
  "_format": "hh-sol-artifact-1",
  "contractName": "TokenFactory",
  "sourceName": "contracts/TokenFactory.sol",
  "abi": [
    {
      "anonymous": false,
      "inputs": [
        {
          "indexed": true,
          "internalType": "address",
          "name": "tokenAddress",
          "type": "address"
        },
        {
          "indexed": false,
          "internalType": "string",
          "name": "name",
          "type": "string"
        },
        {
          "indexed": false,
          "internalType": "string",
          "name": "symbol",
          "type": "string"
        },
        {
          "indexed": false,
          "internalType": "address",
          "name": "owner",
          "type": "address"
        }
      ],
      "name": "TokenCreated",
      "type": "event"
    },
    {
      "inputs": [
        {
          "internalType": "string",
          "name": "name",
          "type": "string"
        },
        {
          "internalType": "string",
          "name": "symbol",
          "type": "string"
        }
      ],
      "name": "createToken",
      "outputs": [
        {
          "internalType": "address",
          "name": "",
          "type": "address"
        }
      ],
      "stateMutability": "nonpayable",
      "type": "function"
    },
    {
      "inputs": [],
      "name": "getAllTokens",
      "outputs": [
        {
          "internalType": "address[]",
          "name": "",
          "type": "address[]"
        }
      ],
      "stateMutability": "view",
      "type": "function"
    },
    {
      "inputs": [
        {
          "internalType": "address",
          "name": "",
          "type": "address"
        }
      ],
      "name": "tokenInfo",
      "outputs": [
        {
          "internalType": "string",
          "name": "name",
          "type": "string"
        },
        {
          "internalType": "string",
          "name": "symbol",
          "type": "string"
        }
      ],
      "stateMutability": "view",
      "type": "function"
    },
    {
      "inputs": [
        {
          "internalType": "uint256",
          "name": "",
          "type": "uint256"
        }
      ],
      "name": "tokens",
      "outputs": [
        {
          "internalType": "address",
          "name": "",
          "type": "address"
        }
      ],
      "stateMutability": "view",
      "type": "function"
    }
  ],
  "bytecode": "0x608060405234801561001057600080fd5b50612484806100206000396000f3fe60806040523480156200001157600080fd5b5060043610620000525760003560e01c80632a5c792a14620000575780632f2f2d5614620000795780634f64b2be14620000af578063f5dab71114620000e5575b600080fd5b620000616200011c565b604051620000709190620005c8565b60405180910390f35b62000097600480360381019062000091919062000762565b620001ac565b604051620000a69190620007f8565b60405180910390f35b620000cd6004803603810190620000c7919062000850565b62000334565b604051620000dc9190620007f8565b60405180910390f35b620001036004803603810190620000fd9190620008b3565b62000374565b604051620001139291906200096e565b60405180910390f35b60606000805480602002602001604051908101604052809291908181526020018280548015620001a257602002820191906000526020600020905b8160009054906101000a900473ffffffffffffffffffffffffffffffffffffffff1673ffffffffffffffffffffffffffffffffffffffff168152602001906001019080831162000157575b5050505050905090565b6000808383604051620001bf90620004b8565b620001cc9291906200096e565b604051809103906000f080158015620001e9573d6000803e3d6000fd5b5090506000819080600181540180825580915050600190039060005260206000200160009091909190916101000a81548173ffffffffffffffffffffffffffffffffffffffff021916908373ffffffffffffffffffffffffffffffffffffffff160217905550604051806040016040528085815260200184815250600160008373ffffffffffffffffffffffffffffffffffffffff1673ffffffffffffffffffffffffffffffffffffffff1681526020019081526020016000206000820151816000019081620002ba919062000bdf565b506020820151816001019081620002d2919062000bdf565b509050508073ffffffffffffffffffffffffffffffffffffffff167f6596c1670eb3390048d23721809c3da5d3f531375ac0e2cab0f77a808ed64331858533604051620003229392919062000cc6565b60405180910390a28091505092915050565b600081815481106200034557600080fd5b906000526020600020016000915054906101000a900473ffffffffffffffffffffffffffffffffffffffff1681565b60016020528060005260406000206000915090508060000180546200039990620009d8565b80601f0160208091040260200160405190810160405280929190818152602001828054620003c790620009d8565b8015620004185780601f10620003ec5761010080835404028352916020019162000418565b820191906000526020600020905b815481529060010190602001808311620003fa57829003601f168201915b5050505050908060010180546200042f90620009d8565b80601f01602080910402602001604051908101604052809291908181526020018280546200045d90620009d8565b8015620004ae5780601f106200048257610100808354040283529160200191620004ae565b820191906000526020600020905b8154815290600101906020018083116200049057829003601f168201915b5050505050905082565b61173d8062000d1283390190565b600081519050919050565b600082825260208201905092915050565b6000819050602082019050919050565b600073ffffffffffffffffffffffffffffffffffffffff82169050919050565b60006200051f82620004f2565b9050919050565b620005318162000512565b82525050565b600062000545838362000526565b60208301905092915050565b6000602082019050919050565b60006200056b82620004c6565b620005778185620004d1565b93506200058483620004e2565b8060005b83811015620005bb5781516200059f888262000537565b9750620005ac8362000551565b92505060018101905062000588565b5085935050505092915050565b60006020820190508181036000830152620005e481846200055e565b905092915050565b6000604051905090565b600080fd5b600080fd5b600080fd5b600080fd5b6000601f19601f8301169050919050565b7f4e487b7100000000000000000000000000000000000000000000000000000000600052604160045260246000fd5b62000655826200060a565b810181811067ffffffffffffffff821117156200067757620006766200061b565b5b80604052505050565b60006200068c620005ec565b90506200069a82826200064a565b919050565b600067ffffffffffffffff821115620006bd57620006bc6200061b565b5b620006c8826200060a565b9050602081019050919050565b82818337600083830152505050565b6000620006fb620006f5846200069f565b62000680565b9050828152602081018484840111156200071a576200071962000605565b5b62000727848285620006d5565b509392505050565b600082601f83011262000747576200074662000600565b5b813562000759848260208601620006e4565b91505092915050565b600080604083850312156200077c576200077b620005f6565b5b600083013567ffffffffffffffff8111156200079d576200079c620005fb565b5b620007ab858286016200072f565b925050602083013567ffffffffffffffff811115620007cf57620007ce620005fb565b5b620007dd858286016200072f565b9150509250929050565b620007f28162000512565b82525050565b60006020820190506200080f6000830184620007e7565b92915050565b6000819050919050565b6200082a8162000815565b81146200083657600080fd5b50565b6000813590506200084a816200081f565b92915050565b600060208284031215620008695762000868620005f6565b5b6000620008798482850162000839565b91505092915050565b6200088d8162000512565b81146200089957600080fd5b50565b600081359050620008ad8162000882565b92915050565b600060208284031215620008cc57620008cb620005f6565b5b6000620008dc848285016200089c565b91505092915050565b600081519050919050565b600082825260208201905092915050565b60005b838110156200092157808201518184015260208101905062000904565b60008484015250505050565b60006200093a82620008e5565b620009468185620008f0565b93506200095881856020860162000901565b62000963816200060a565b840191505092915050565b600060408201905081810360008301526200098a81856200092d565b90508181036020830152620009a081846200092d565b90509392505050565b7f4e487b7100000000000000000000000000000000000000000000000000000000600052602260045260246000fd5b60006002820490506001821680620009f157607f821691505b60208210810362000a075762000a06620009a9565b5b50919050565b60008190508160005260206000209050919050565b60006020601f8301049050919050565b600082821b905092915050565b60006008830262000a717fffffffffffffffffffffffffffffffffffffffffffffffffffffffffffffffff8262000a32565b62000a7d868362000a32565b95508019841693508086168417925050509392505050565b6000819050919050565b600062000ac062000aba62000ab48462000815565b62000a95565b62000815565b9050919050565b6000819050919050565b62000adc8362000a9f565b62000af462000aeb8262000ac7565b84845462000a3f565b825550505050565b600090565b62000b0b62000afc565b62000b1881848462000ad1565b505050565b5b8181101562000b405762000b3460008262000b01565b60018101905062000b1e565b5050565b601f82111562000b8f5762000b598162000a0d565b62000b648462000a22565b8101602085101562000b74578190505b62000b8c62000b838562000a22565b83018262000b1d565b50505b505050565b600082821c905092915050565b600062000bb46000198460080262000b94565b1980831691505092915050565b600062000bcf838362000ba1565b9150826002028217905092915050565b62000bea82620008e5565b67ffffffffffffffff81111562000c065762000c056200061b565b5b62000c128254620009d8565b62000c1f82828562000b44565b600060209050601f83116001811462000c57576000841562000c42578287015190505b62000c4e858262000bc1565b86555062000cbe565b601f19841662000c678662000a0d565b60005b8281101562000c915784890151825560018201915060208501945060208101905062000c6a565b8683101562000cb1578489015162000cad601f89168262000ba1565b8355505b6001600288020188555050505b505050505050565b6000606082019050818103600083015262000ce281866200092d565b9050818103602083015262000cf881856200092d565b905062000d096040830184620007e7565b94935050505056fe60806040523480156200001157600080fd5b506040516200173d3803806200173d83398181016040528101906200003791906200023b565b818181600390816200004a91906200050b565b5080600490816200005c91906200050b565b50505033600560006101000a81548173ffffffffffffffffffffffffffffffffffffffff021916908373ffffffffffffffffffffffffffffffffffffffff1602179055505050620005f2565b6000604051905090565b600080fd5b600080fd5b600080fd5b600080fd5b6000601f19601f8301169050919050565b7f4e487b7100000000000000000000000000000000000000000000000000000000600052604160045260246000fd5b6200011182620000c6565b810181811067ffffffffffffffff82111715620001335762000132620000d7565b5b80604052505050565b600062000148620000a8565b905062000156828262000106565b919050565b600067ffffffffffffffff821115620001795762000178620000d7565b5b6200018482620000c6565b9050602081019050919050565b60005b83811015620001b157808201518184015260208101905062000194565b60008484015250505050565b6000620001d4620001ce846200015b565b6200013c565b905082815260208101848484011115620001f357620001f2620000c1565b5b6200020084828562000191565b509392505050565b600082601f83011262000220576200021f620000bc565b5b815162000232848260208601620001bd565b91505092915050565b60008060408385031215620002555762000254620000b2565b5b600083015167ffffffffffffffff811115620002765762000275620000b7565b5b620002848582860162000208565b925050602083015167ffffffffffffffff811115620002a857620002a7620000b7565b5b620002b68582860162000208565b9150509250929050565b600081519050919050565b7f4e487b7100000000000000000000000000000000000000000000000000000000600052602260045260246000fd5b600060028204905060018216806200031357607f821691505b602082108103620003295762000328620002cb565b5b50919050565b60008190508160005260206000209050919050565b60006020601f8301049050919050565b600082821b905092915050565b600060088302620003937fffffffffffffffffffffffffffffffffffffffffffffffffffffffffffffffff8262000354565b6200039f868362000354565b95508019841693508086168417925050509392505050565b6000819050919050565b6000819050919050565b6000620003ec620003e6620003e084620003b7565b620003c1565b620003b7565b9050919050565b6000819050919050565b6200040883620003cb565b620004206200041782620003f3565b84845462000361565b825550505050565b600090565b6200043762000428565b62000444818484620003fd565b505050565b5b818110156200046c57620004606000826200042d565b6001810190506200044a565b5050565b601f821115620004bb5762000485816200032f565b620004908462000344565b81016020851015620004a0578190505b620004b8620004af8562000344565b83018262000449565b50505b505050565b600082821c905092915050565b6000620004e060001984600802620004c0565b1980831691505092915050565b6000620004fb8383620004cd565b9150826002028217905092915050565b6200051682620002c0565b67ffffffffffffffff811115620005325762000531620000d7565b5b6200053e8254620002fa565b6200054b82828562000470565b600060209050601f8311600181146200058357600084156200056e578287015190505b6200057a8582620004ed565b865550620005ea565b601f19841662000593866200032f565b60005b82811015620005bd5784890151825560018201915060208501945060208101905062000596565b86831015620005dd5784890151620005d9601f891682620004cd565b8355505b6001600288020188555050505b505050505050565b61113b80620006026000396000f3fe608060405234801561001057600080fd5b50600436106100b45760003560e01c806342966c681161007157806342966c681461018f57806370a08231146101ab5780638da5cb5b146101db57806395d89b41146101f9578063a9059cbb14610217578063dd62ed3e14610247576100b4565b806306fdde03146100b9578063095ea7b3146100d757806318160ddd1461010757806323b872dd14610125578063313ce5671461015557806340c10f1914610173575b600080fd5b6100c1610277565b6040516100ce9190610cf6565b60405180910390f35b6100f160048036038101906100ec9190610db1565b610309565b6040516100fe9190610e0c565b60405180910390f35b61010f61032c565b60405161011c9190610e36565b60405180910390f35b61013f600480360381019061013a9190610e51565b610336565b60405161014c9190610e0c565b60405180910390f35b61015d610365565b60405161016a9190610ec0565b60405180910390f35b61018d60048036038101906101889190610db1565b61036e565b005b6101a960048036038101906101a49190610edb565b61040c565b005b6101c560048036038101906101c09190610f08565b610419565b6040516101d29190610e36565b60405180910390f35b6101e3610461565b6040516101f09190610f44565b60405180910390f35b610201610487565b60405161020e9190610cf6565b60405180910390f35b610231600480360381019061022c9190610db1565b610519565b60405161023e9190610e0c565b60405180910390f35b610261600480360381019061025c9190610f5f565b61053c565b60405161026e9190610e36565b60405180910390f35b60606003805461028690610fce565b80601f01602080910402602001604051908101604052809291908181526020018280546102b290610fce565b80156102ff5780601f106102d4576101008083540402835291602001916102ff565b820191906000526020600020905b8154815290600101906020018083116102e257829003601f168201915b5050505050905090565b6000806103146105c3565b90506103218185856105cb565b600191505092915050565b6000600254905090565b6000806103416105c3565b905061034e8582856105dd565b610359858585610672565b60019150509392505050565b60006012905090565b600560009054906101000a900473ffffffffffffffffffffffffffffffffffffffff1673ffffffffffffffffffffffffffffffffffffffff163373ffffffffffffffffffffffffffffffffffffffff16146103fe576040517f08c379a00000000000000000000000000000000000000000000000000000000081526004016103f59061104b565b60405180910390fd5b6104088282610766565b5050565b61041633826107e8565b50565b60008060008373ffffffffffffffffffffffffffffffffffffffff1673ffffffffffffffffffffffffffffffffffffffff168152602001908152602001600020549050919050565b600560009054906101000a900473ffffffffffffffffffffffffffffffffffffffff1681565b60606004805461049690610fce565b80601f01602080910402602001604051908101604052809291908181526020018280546104c290610fce565b801561050f5780601f106104e45761010080835404028352916020019161050f565b820191906000526020600020905b8154815290600101906020018083116104f257829003601f168201915b5050505050905090565b6000806105246105c3565b9050610531818585610672565b600191505092915050565b6000600160008473ffffffffffffffffffffffffffffffffffffffff1673ffffffffffffffffffffffffffffffffffffffff16815260200190815260200160002060008373ffffffffffffffffffffffffffffffffffffffff1673ffffffffffffffffffffffffffffffffffffffff16815260200190815260200160002054905092915050565b600033905090565b6105d8838383600161086a565b505050565b60006105e9848461053c565b90507fffffffffffffffffffffffffffffffffffffffffffffffffffffffffffffffff81101561066c578181101561065c578281836040517ffb8f41b20000000000000000000000000000000000000000000000000000000081526004016106539392919061106b565b60405180910390fd5b61066b8484848403600061086a565b5b50505050565b600073ffffffffffffffffffffffffffffffffffffffff168373ffffffffffffffffffffffffffffffffffffffff16036106e45760006040517f96c6fd1e0000000000000000000000000000000000000000000000000000000081526004016106db9190610f44565b60405180910390fd5b600073ffffffffffffffffffffffffffffffffffffffff168273ffffffffffffffffffffffffffffffffffffffff16036107565760006040517fec442f0500000000000000000000000000000000000000000000000000000000815260040161074d9190610f44565b60405180910390fd5b610761838383610a41565b505050565b600073ffffffffffffffffffffffffffffffffffffffff168273ffffffffffffffffffffffffffffffffffffffff16036107d85760006040517fec442f050000000000000000000000000000000000000000000000000000000081526004016107cf9190610f44565b60405180910390fd5b6107e460008383610a41565b5050565b600073ffffffffffffffffffffffffffffffffffffffff168273ffffffffffffffffffffffffffffffffffffffff160361085a5760006040517f96c6fd1e0000000000000000000000000000000000000000000000000000000081526004016108519190610f44565b60405180910390fd5b61086682600083610a41565b5050565b600073ffffffffffffffffffffffffffffffffffffffff168473ffffffffffffffffffffffffffffffffffffffff16036108dc5760006040517fe602df050000000000000000000000000000000000000000000000000000000081526004016108d39190610f44565b60405180910390fd5b600073ffffffffffffffffffffffffffffffffffffffff168373ffffffffffffffffffffffffffffffffffffffff160361094e5760006040517f94280d620000000000000000000000000000000000000000000000000000000081526004016109459190610f44565b60405180910390fd5b81600160008673ffffffffffffffffffffffffffffffffffffffff1673ffffffffffffffffffffffffffffffffffffffff16815260200190815260200160002060008573ffffffffffffffffffffffffffffffffffffffff1673ffffffffffffffffffffffffffffffffffffffff168152602001908152602001600020819055508015610a3b578273ffffffffffffffffffffffffffffffffffffffff168473ffffffffffffffffffffffffffffffffffffffff167f8c5be1e5ebec7d5bd14f71427d1e84f3dd0314c0f7b2291e5b200ac8c7c3b92584604051610a329190610e36565b60405180910390a35b50505050565b600073ffffffffffffffffffffffffffffffffffffffff168373ffffffffffffffffffffffffffffffffffffffff1603610a93578060026000828254610a8791906110d1565b92505081905550610b66565b60008060008573ffffffffffffffffffffffffffffffffffffffff1673ffffffffffffffffffffffffffffffffffffffff16815260200190815260200160002054905081811015610b1f578381836040517fe450d38c000000000000000000000000000000000000000000000000000000008152600401610b169392919061106b565b60405180910390fd5b8181036000808673ffffffffffffffffffffffffffffffffffffffff1673ffffffffffffffffffffffffffffffffffffffff16815260200190815260200160002081905550505b600073ffffffffffffffffffffffffffffffffffffffff168273ffffffffffffffffffffffffffffffffffffffff1603610baf5780600260008282540392505081905550610bfc565b806000808473ffffffffffffffffffffffffffffffffffffffff1673ffffffffffffffffffffffffffffffffffffffff168152602001908152602001600020600082825401925050819055505b8173ffffffffffffffffffffffffffffffffffffffff168373ffffffffffffffffffffffffffffffffffffffff167fddf252ad1be2c89b69c2b068fc378daa952ba7f163c4a11628f55a4df523b3ef83604051610c599190610e36565b60405180910390a3505050565b600081519050919050565b600082825260208201905092915050565b60005b83811015610ca0578082015181840152602081019050610c85565b60008484015250505050565b6000601f19601f8301169050919050565b6000610cc882610c66565b610cd28185610c71565b9350610ce2818560208601610c82565b610ceb81610cac565b840191505092915050565b60006020820190508181036000830152610d108184610cbd565b905092915050565b600080fd5b600073ffffffffffffffffffffffffffffffffffffffff82169050919050565b6000610d4882610d1d565b9050919050565b610d5881610d3d565b8114610d6357600080fd5b50565b600081359050610d7581610d4f565b92915050565b6000819050919050565b610d8e81610d7b565b8114610d9957600080fd5b50565b600081359050610dab81610d85565b92915050565b60008060408385031215610dc857610dc7610d18565b5b6000610dd685828601610d66565b9250506020610de785828601610d9c565b9150509250929050565b60008115159050919050565b610e0681610df1565b82525050565b6000602082019050610e216000830184610dfd565b92915050565b610e3081610d7b565b82525050565b6000602082019050610e4b6000830184610e27565b92915050565b600080600060608486031215610e6a57610e69610d18565b5b6000610e7886828701610d66565b9350506020610e8986828701610d66565b9250506040610e9a86828701610d9c565b9150509250925092565b600060ff82169050919050565b610eba81610ea4565b82525050565b6000602082019050610ed56000830184610eb1565b92915050565b600060208284031215610ef157610ef0610d18565b5b6000610eff84828501610d9c565b91505092915050565b600060208284031215610f1e57610f1d610d18565b5b6000610f2c84828501610d66565b91505092915050565b610f3e81610d3d565b82525050565b6000602082019050610f596000830184610f35565b92915050565b60008060408385031215610f7657610f75610d18565b5b6000610f8485828601610d66565b9250506020610f9585828601610d66565b9150509250929050565b7f4e487b7100000000000000000000000000000000000000000000000000000000600052602260045260246000fd5b60006002820490506001821680610fe657607f821691505b602082108103610ff957610ff8610f9f565b5b50919050565b7f4f6e6c7920746865206f776e65722063616e206d696e7420746f6b656e730000600082015250565b6000611035601e83610c71565b915061104082610fff565b602082019050919050565b6000602082019050818103600083015261106481611028565b9050919050565b60006060820190506110806000830186610f35565b61108d6020830185610e27565b61109a6040830184610e27565b949350505050565b7f4e487b7100000000000000000000000000000000000000000000000000000000600052601160045260246000fd5b60006110dc82610d7b565b91506110e783610d7b565b92508282019050808211156110ff576110fe6110a2565b5b9291505056fea264697066735822122072e3226f3f6cb1d437e4fb250dad0a2c52825dc5b9842fb5d5d63e9faeda421d64736f6c63430008140033a26469706673582212209f3f76cd4d229d1e3ed745b78b13289187d7e31f914397684ce52abe5e65eccf64736f6c63430008140033",
  "linkReferences": {},
  "deployedLinkReferences": {}
}